:100000000C9463000C94DB060C9408070C948B0092
:100010000C948B000C948B000C948B000C94740C3F
:100020000C948B000C948B000C948B000C948B0024
:100030000C948B000C948B000C948B000C948B0014
:100040000C9435070C948B000C94D9080C94270958
:100050000C948B000C948B000C948B000C948B00F4
:100060000C948B000C948B000000000024002700EF
:100070002A0000000000250028002B0000000000DE
:1000800023002600290004040404040404040202DA
:100090000202020203030303030301020408102007
:1000A0004080010204081020010204081020000012
:1000B0000007000201000003040600000000000029
:1000C00000000200950A11241FBECFEFD8E0DEBF6A
:1000D000CDBF11E0A0E0B1E0E0E6F3E202C00590A0
:1000E0000D92AE37B107D9F712E0AEE7B1E001C02B
:1000F0001D92A23FB107E1F710E0C6ECD0E004C0CA
:100100002297FE010E94AA11C43CD107C9F70E94A0
:10011000EB0A0C94AE110C9400000F931F938C010A
:1001200087EB92E060E071E00E94290CC801029622
:100130000E94AC011F910F910895EF92FF920F93CF
:100140001F938C01FC0186E691E081939193CF018E
:1001500066E070E00E94CC0184E0E82EF12CE00E15
:10016000F11EC701B8010E944901C7010E943B016D
:100170001F910F91FF90EF9008950E9463010895E1
:100180000E949D0008956F927F928F929F92AF92EE
:10019000BF92CF92DF92EF92FF920F931F93CF9374
:1001A000DF93EC0182E0A82EB12CAC0EBD1EC50180
:1001B0000E942002882309F44CC0C5010E94390224
:1001C0007B018C010E947D072D853E854F855889D6
:1001D0003B014C01621A730A840A950AA401930137
:1001E0006D877E878F87988B285E334040405040D4
:1001F00068F1EB85FC85A081B1812D913C91CF0107
:10020000B701F901099586E9E81688EFF80651F07B
:100210008CE5E81685E7F80661F487EB92E06EE07E
:1002200071E004C087EB92E063E171E00E94290C69
:100230000DC087EB92E06BE171E00E94260C87EB2A
:1002400092E0B7014AE050E00E94070CC5010E940D
:100250003002DF91CF911F910F91FF90EF90DF90CF
:10026000CF90BF90AF909F908F907F906F900895A8
:100270000E94C30008950F931F938C010E94840174
:10028000C801029660E070E00E94B2061F910F91D3
:100290000895EF92FF920F931F938C017B01FC0155
:1002A0008CE691E081939193CF010E940002F801C6
:1002B000F486E386158616861786108A1F910F919D
:1002C000FF90EF9008950F931F93CF93DF9300E873
:1002D00011E0C0E0D0E00CC0D801ED91FD918D019E
:1002E000A081B1812D913C91CF01F9010995219611
:1002F00080917E0190917F01C817D9076CF3DF913F
:10030000CF911F910F910895CF93DF93EC0187EB6D
:1003100092E068E271E00E94290C80917E01909148
:100320007F01079730F087EB92E060E471E00E9474
:10033000290C80917E0190917F01FC01EE0FFF1F3F
:10034000E058FE4FD183C083019690937F01809344
:100350007E01DF91CF9108950F931F93CF93DF9389
:100360008C01C0E0D0E0F80180816CEA7DE02BE4F4
:1003700030E040E050E00E94D00C6DE770E080E09B
:1003800090E00E94B1072196C430D10561F7DF915A
:10039000CF911F910F910895FC01862F6083718387
:1003A00061E00E944508089580918601909187013F
:1003B0000E94BD0008950F931F9387EB92E040E8E1
:1003C00055E260E070E00E94620987EB92E00E94D3
:1003D000930A8823D1F387EB92E06EE471E00E94E8
:1003E000290C85E190E00E94FA0A182F092F0E943B
:1003F000C00010938601009387011F910F9108950B
:10040000FC012FEF3FEF338322838AE090E0978354
:10041000868381E080878EE591E0958384833183B4
:1004200020838CE390E090935A01809359011092BD
:1004300088011092890110928A0110928B0108950F
:1004400020E08091880190918901A0918A01B0916A
:100450008B010097A105B10509F021E0822F0895D5
:10046000109288011092890110928A0110928B01DA
:100470000895609188017091890180918A0190911D
:100480008B0108952F923F924F925F926F927F92CD
:100490008F929F92AF92BF92CF92DF92EF92FF9294
:1004A0000F931F93DF93CF93CDB7DEB762970FB64D
:1004B000F894DEBF0FBECDBF3C01809192019091B8
:1004C00093016FE170E00E9457114B017B0100E046
:1004D00010E02091590130915A01442737FD409591
:1004E000542FC801B7010E9438110E9447102AE01A
:1004F00037ED43E25CE30E94D5100E941B10A80177
:100500009701220F331F441F551F2E0D3F1D401F03
:10051000511F59016A01A61AB70AC80AD90AAD8241
:10052000BE82CF82D8865B016C01A20EB31EC41EB0
:10053000D51EA982BA82CB82DC8221E030E03A87E4
:100540002987AA24BB24650117012801261A370A26
:10055000480A590AA8019701260F371F481F591F3B
:100560002F87388B498B5A8B7AC0E985FA85EE0F35
:10057000FF1FEE56FE4F808191819C0140E050E0CC
:10058000221633064406550658F58F859889A989A1
:10059000BA89281739074A075B0710F5E985FA85F4
:1005A000EE0FFF1FEC56FE4F0190F081E02D7F0112
:1005B00000E010E0EB86FC860D871E878D819E8112
:1005C000AF81B8858E159F05A007B10748F48981D2
:1005D0009A81AB81BC81E816F9060A071B0778F1FE
:1005E000ED80FE800F811885E216F30604071507DB
:1005F00058F589819A81AB81BC81281739074A0750
:100600005B0710F5E985FA85EE0FFF1FEC56FE4FEC
:1006100080819181A0E0B0E0281639064A065B0689
:1006200098F4EF84F88809891A898E159F05A00728
:10063000B10750F40894A11CB11CC11CD11CAA0C18
:10064000BB1CCC1CDD1C05C07A866986AA24BB2491
:10065000650109851A850E5F1F4F1A87098729854D
:100660003A852615370508F480CFA60195015695E1
:1006700047953795279587E068167104C0F0209359
:1006800088013093890140938A0150938B017694BD
:10069000679470928D0160928C0190928F0180928C
:1006A0008E0181E090E0909391018093900180E031
:1006B000211531054105510509F081E062960FB61B
:1006C000F894DEBF0FBECDBFCF91DF911F910F9188
:1006D000FF90EF90DF90CF90BF90AF909F908F9062
:1006E0007F906F905F904F903F902F9008952F9242
:1006F0003F924F925F926F927F928F929F92AF92B2
:10070000BF92CF92DF92EF92FF920F931F93DF93EE
:10071000CF93CDB7DEB762970FB6F894DEBF0FBEAA
:10072000CDBF3C0180919201909193016AE070E00D
:100730000E9457114B017B0100E010E0209159010C
:1007400030915A01442737FD4095542FC801B70115
:100750000E9438110E9447102AE037ED43E25CE323
:100760000E94D5100E941B10A8019701220F331F71
:10077000441F551F59016A01A61AB70AC80AD90AA7
:10078000AD82BE82CF82D8865B016C01A20EB31E01
:10079000C41ED51EA982BA82CB82DC82AA24BB24C5
:1007A000650121E030E03A87298717012801261AE0
:1007B000370A480A590AA8019701260F371F481F10
:1007C000591F2F87388B498B5A8B7AC0E985FA8558
:1007D000EE0FFF1FEE56FE4F808191819C0140E09D
:1007E00050E0221633064406550658F58F85988941
:1007F000A989BA89281739074A075B0710F5E985DF
:10080000FA85EE0FFF1FEC56FE4F0190F081E02DB0
:100810007F0100E010E0EB86FC860D871E878D814E
:100820009E81AF81B8858E159F05A007B10748F45A
:1008300089819A81AB81BC81E816F9060A071B07FA
:1008400078F1ED80FE800F811885E216F30604072B
:10085000150758F589819A81AB81BC812817390722
:100860004A075B0710F5E985FA85EE0FFF1FEC5686
:10087000FE4F80819181A0E0B0E0281639064A063B
:100880005B0698F4EF84F88809891A898E159F050C
:10089000A007B10750F40894A11CB11CC11CD11CC5
:1008A000AA0CBB1CCC1CDD1C05C07A866986AA2458
:1008B000BB24650109851A850E5F1F4F1A870987BA
:1008C00029853A852615370508F480CFA6019501BC
:1008D000569547953795279587E068167104C0F0BF
:1008E000209388013093890140938A0150938B01B2
:1008F0007694679470928D0160928C0190928F0132
:1009000080928E0182E090E090939101809390011B
:1009100080E0211531054105510509F081E062961D
:100920000FB6F894DEBF0FBECDBFCF91DF911F9100
:100930000F91FF90EF90DF90CF90BF90AF909F907E
:100940008F907F906F905F904F903F902F90089581
:100950002F923F924F925F926F927F928F929F92CF
:10096000AF92BF92CF92DF92EF92FF920F931F93BD
:10097000DF93CF93CDB7DEB76C970FB6F894DEBF99
:100980000FBECDBF4C01809192019091930167E41D
:1009900070E00E9457111B015B01CC24DD242091E3
:1009A000590130915A01442737FD4095542FC60113
:1009B000B5010E9438110E9447102AE037ED43E24A
:1009C0005CE30E94D5100E941B107B018C01D601B4
:1009D000C50142E0880F991FAA1FBB1F4A95D1F796
:1009E0009C01AD012E193F09400B510B2D8B3E8B05
:1009F0004F8B588FA8019701280F391F4A1F5B1F83
:100A0000298B3A8B4B8B5C8BC601B5012BE030E018
:100A100040E050E00E9438119B01AC012E193F09C3
:100A2000400B510B2D873E874F87588BA8019701AC
:100A3000260F371F481F591F29873A874B875C8726
:100A4000D601C50133E0880F991FAA1FBB1F3A9535
:100A5000D1F78A0D9B1DAC1DBD1D9C01AD012E194A
:100A60003F09400B510B2D833E834F835887A801CC
:100A70009701280F391F4A1F5B1F29833A834B8335
:100A80005C83C601B50126E030E040E050E00E9402
:100A900038112B013C014E185F08600A710A57019A
:100AA0006801A60EB71EC81ED91EA98EBA8ECB8E9F
:100AB000DC8EEE24FF24870161E070E070C0FB0152
:100AC000EE0FFF1FEE56FE4F808191819C0140E0AA
:100AD00050E08D899E89AF89B88D82179307A4074E
:100AE000B50720F5A988BA88CB88DC882A153B058C
:100AF0004C055D05D8F4FB01EE0FFF1FEC56FE4FD1
:100B000080819181A0E0B0E0AD84BE84CF84D8889C
:100B1000A816B906CA06DB0648F4A984BA84CB84B1
:100B2000DC848A159B05AC05BD0570F18D819E8125
:100B3000AF81B88582179307A407B50750F5A98040
:100B4000BA80CB80DC802A153B054C055D0508F595
:100B5000FB01EE0FFF1FEC56FE4F80819181A0E05C
:100B6000B0E0481659066A067B0698F4298D3A8D3E
:100B70004B8D5C8D82179307A407B50750F408943A
:100B8000E11CF11C011D111DEE0CFF1C001F111FAB
:100B900004C0B401EE24FF2487016E5F7F4F681507
:100BA000790508F48CCFA80197015695479537959C
:100BB000279587E088169104C0F020938801309330
:100BC000890140938A0150938B0196948794909267
:100BD0008D0180928C0130928F0120928E0183E0F2
:100BE00090E0909391018093900180E02115310570
:100BF0004105510509F081E06C960FB6F894DEBF0F
:100C00000FBECDBFCF91DF911F910F91FF90EF905D
:100C1000DF90CF90BF90AF909F908F907F906F901C
:100C20005F904F903F902F900895CF92DF92EF9278
:100C3000FF920F931F93CF93DF930E948B076B015B
:100C40007C0180911A0290911B028601081B190BEE
:100C5000109321020093200283E109381807C0F1A4
:100C60002091920130919301C901885C90408017D6
:100C7000910750F528533F4F0217130728F580912D
:100C8000180290911902019690931902809318020C
:100C9000C0911E02D0911F022197D0931F02C093D2
:100CA0001E02029789F4CE010E944202882341F479
:100CB000CE010E947703882319F4CE010E94A80474
:100CC000109219021092180210921F0210921E0226
:100CD00080911E0290911F028334910540F0109282
:100CE0001F0210921E021092190210921802809197
:100CF0001E0290911F02FC01EE0FFF1FEE56FE4FE9
:100D000011830083019690931F0280931E02C0926C
:100D10001A02D0921B02E0921C02F0921D02DF9197
:100D2000CF911F910F91FF90EF90DF90CF9008959A
:100D3000FC01808191812FEF8F3F920791F01092FB
:100D400088011092890110928A0110928B011092F1
:100D50008D0110928C0165E176E041E050E00E9447
:100D6000B8060895FC01718360830E949806089577
:100D7000823000F5E82FF0E0EE0FFF1FEE5DFD4F33
:100D800071836083882319F08130A1F408C08091B9
:100D900069008C7F842B80936900E89A0895809184
:100DA0006900440F551F440F551F837F842B809388
:100DB0006900E99A08951F920F920FB60F921124BD
:100DC0002F933F934F935F936F937F938F939F9353
:100DD000AF93BF93EF93FF938091220290912302F0
:100DE000892B29F0E0912202F09123020995FF91CD
:100DF000EF91BF91AF919F918F917F916F915F9193
:100E00004F913F912F910F900FBE0F901F9018950B
:100E10001F920F920FB60F9211242F933F934F936F
:100E20005F936F937F938F939F93AF93BF93EF9352
:100E3000FF938091240290912502892B29F0E09163
:100E40002402F09125020995FF91EF91BF91AF9196
:100E50009F918F917F916F915F914F913F912F91D2
:100E60000F900FBE0F901F9018951F920F920FB604
:100E70000F9211242F933F938F939F93AF93BF9320
:100E800080912A0290912B02A0912C02B0912D0208
:100E900030912E020196A11DB11D232F2D5F2D37FC
:100EA00020F02D570196A11DB11D20932E02809395
:100EB0002A0290932B02A0932C02B0932D028091D2
:100EC000260290912702A0912802B0912902019652
:100ED000A11DB11D8093260290932702A0932802A2
:100EE000B0932902BF91AF919F918F913F912F9124
:100EF0000F900FBE0F901F9018958FB7F894209108
:100F00002A0230912B0240912C0250912D028FBF6A
:100F1000B901CA0108959FB7F89420912602309133
:100F20002702409128025091290286B5A89B06C04D
:100F30008F3F21F02F5F3F4F4F4F5F4F9FBF542F89
:100F4000432F322F2227280F311D411D511D82E0D2
:100F5000220F331F441F551F8A95D1F7B901CA01CB
:100F600008959B01AC017FB7F8948091260290917F
:100F70002702A0912802B091290266B5A89B05C05E
:100F80006F3F19F00196A11DB11D7FBFBA2FA92F88
:100F9000982F8827860F911DA11DB11D62E0880F33
:100FA000991FAA1FBB1F6A95D1F7BC012DC0FFB7BF
:100FB000F8948091260290912702A0912802B09186
:100FC0002902E6B5A89B05C0EF3F19F00196A11DC7
:100FD000B11DFFBFBA2FA92F982F88278E0F911D03
:100FE000A11DB11DE2E0880F991FAA1FBB1FEA9542
:100FF000D1F7861B970B885E9340C8F22150304092
:101000004040504068517C4F211531054105510544
:1010100071F60895789484B5826084BD84B581604A
:1010200084BD85B5826085BD85B5816085BDEEE6F0
:10103000F0E0808181608083E1E8F0E010828081CF
:1010400082608083808181608083E0E8F0E080813D
:1010500081608083E1EBF0E0808184608083E0EB5D
:10106000F0E0808181608083EAE7F0E08081846045
:1010700080838081826080838081816080838081A1
:10108000806880831092C1000895CF93DF93482F2A
:1010900050E0CA0186569F4FFC0134914A575F4F7A
:1010A000FA018491882369F190E0880F991FFC016F
:1010B000E859FF4FA591B491FC01EE58FF4FC5913F
:1010C000D491662351F42FB7F8948C91932F909577
:1010D00089238C93888189230BC0623061F42FB7F8
:1010E000F8948C91932F909589238C938881832BEE
:1010F00088832FBF06C09FB7F8948C91832B8C9365
:101100009FBFDF91CF910895482F50E0CA018255CB
:101110009F4FFC012491CA0186569F4FFC01949178
:101120004A575F4FFA013491332309F440C0222318
:1011300051F1233071F0243028F42130A1F0223015
:1011400011F514C02630B1F02730C1F02430D9F4A5
:1011500004C0809180008F7703C0809180008F7DD4
:101160008093800010C084B58F7702C084B58F7DD6
:1011700084BD09C08091B0008F7703C08091B0001A
:101180008F7D8093B000E32FF0E0EE0FFF1FEE584D
:10119000FF4FA591B4912FB7F894662321F48C9159
:1011A0009095892302C08C91892B8C932FBF089531
:1011B00008951F920F920FB60F9211242F933F9311
:1011C0004F938F939F93EF93FF938091C00082FD85
:1011D0001DC04091C60020916F02309170022F5FB8
:1011E0003F4F2F73307080917102909172022817D7
:1011F000390771F0E0916F02F0917002E15DFD4FEF
:1012000040833093700220936F0202C08091C60029
:10121000FF91EF919F918F914F913F912F910F905F
:101220000FBE0F901F901895E091C302F091C40279
:10123000E05CFF4F8191919120813181821B930B62
:101240008F739070892B11F00E94D80808951F9217
:101250000F920FB60F9211242F933F938F939F936A
:10126000EF93FF932091B3023091B4028091B502C5
:101270009091B6022817390731F48091C1008F7D13
:101280008093C10014C0E091B502F091B602ED5810
:10129000FD4F20818091B5029091B60201968F7327
:1012A00090709093B6028093B5022093C600FF9190
:1012B000EF919F918F913F912F910F900FBE0F90C3
:1012C0001F901895AF92BF92DF92EF92FF920F930B
:1012D0001F93CF93DF93EC017A018B01DD24403023
:1012E00081EE580780E0680780E0780711F0DD2480
:1012F000D39491E0A92EB12CEC89FD89DD2069F011
:10130000C50108A002C0880F991F0A94E2F78083E4
:1013100060E079E08DE390E005C0108260E874E859
:101320008EE190E0A80197010E946B11215030409E
:1013300040405040569547953795279580E120309D
:10134000380720F0DD2011F0DD24D6CFE889F989B7
:101350003083EA89FB89208319A2EE89FF894081C5
:1013600021E030E0C9010C8C02C0880F991F0A945B
:10137000E2F7482B4083EE89FF894081C9010D8C3B
:1013800002C0880F991F0A94E2F7482B4083EE8928
:10139000FF894081C9010E8C02C0880F991F0A94F1
:1013A000E2F7482B4083EE89FF8980810F8C02C0D1
:1013B000220F331F0A94E2F7209528232083DF9120
:1013C000CF911F910F91FF90EF90DF90BF90AF9062
:1013D0000895DC011C96ED91FC911D97E05CFF4F98
:1013E0002191319180819181281B390B2F733070AD
:1013F000C9010895DC011C96ED91FC911D97E05CFC
:10140000FF4F20813181E054F040DF01AE5BBF4FE0
:101410008D919C9111972817390719F42FEF3FEF01
:1014200007C08D919C91E80FF91F8081282F30E033
:10143000C9010895DC011C96ED91FC911D97E05CBB
:10144000FF4F20813181E054F040DF01AE5BBF4FA0
:101450008D919C9111972817390719F42FEF3FEFC1
:1014600010C08D919C911197E80FF91F20818D91EB
:101470009C91119701968F73907011969C938E9307
:1014800030E0C9010895DC0191968C9191978823F1
:1014900039F05496ED91FC915597808186FFF9CFF4
:1014A00091961C920895CF93DF93EC01EE85FF8512
:1014B000E05CFF4F20813181E054F0402F5F3F4FCF
:1014C0002F733070DF01AE5BBF4F8D919C911197F0
:1014D00028173907D1F3E05CFF4F80819181E054F8
:1014E000F040E80FF91F6083EE85FF85E05CFF4F59
:1014F00031832083EE89FF89208181E090E00F8C89
:1015000002C0880F991F0A94E2F7282B208381E0FC
:1015100089A3EC89FD8980818064808381E090E0EB
:10152000DF91CF91089581E008951092BA02109250
:10153000B90288EE93E0A0E0B0E08093BB02909304
:10154000BC02A093BD02B093BE0282E791E09093EB
:10155000B8028093B7028FE292E09093C402809326
:10156000C30283E792E09093C6028093C50285ECA4
:1015700090E09093C8028093C70284EC90E090932F
:10158000CA028093C90280EC90E09093CC028093D1
:10159000CB0281EC90E09093CE028093CD0282EC5E
:1015A00090E09093D0028093CF0286EC90E09093ED
:1015B000D2028093D10284E08093D30283E08093AF
:1015C000D40287E08093D50285E08093D60281E043
:1015D0008093D7020895CF93DF930E940A080E9458
:1015E000DB01C4E1D9E00E94D4012097E1F30E941D
:1015F0001409F9CF0E94E60E0895CF92DF92EF9280
:10160000FF920F931F93CF93DF937C016B018A01AD
:10161000C0E0D0E00FC0D6016D916D01D701ED9112
:10162000FC910190F081E02DC7010995C80FD91FE9
:10163000015010400115110571F7CE01DF91CF91D6
:101640001F910F91FF90EF90DF90CF900895EF9250
:10165000FF920F931F938C01DC01ED91FC9101909F
:10166000F081E02D6DE009957C01D801ED91FC91B0
:101670000190F081E02DC8016AE009959C012E0DD2
:101680003F1DC9011F910F91FF90EF900895CF93D7
:10169000DF93EC016115710519F420E030E00FC013
:1016A000DB010D900020E9F71197A61BB70BE8812D
:1016B000F9810280F381E02DAD0109959C01C901FA
:1016C000DF91CF9108954F925F927F928F929F9278
:1016D000AF92BF92CF92DF92EF92FF920F931F9340
:1016E000DF93CF93CDB7DEB7A1970FB6F894DEBFE7
:1016F0000FBECDBF2C01742ECB01223008F42AE09E
:1017000019A231E2C32ED12CCC0EDD1E822E9924DB
:10171000AA24BB24672D752FA50194010E946B118B
:1017200079018A01C801B701A50194010E9438110D
:10173000472D461B0894C108D1084A3014F4405D77
:1017400001C0495CF6014083E114F1040105110573
:1017500021F07E2C5F2DC801DDCFC201B6010E94B1
:10176000470BA1960FB6F894DEBF0FBECDBFCF9149
:10177000DF911F910F91FF90EF90DF90CF90BF907E
:10178000AF909F908F907F905F904F900895CF92F1
:10179000DF92EF92FF920F931F93CF93DF93EC01B1
:1017A0006A017B012115310541F4E881F98101903D
:1017B000F081E02D642F09951FC02A303105D1F446
:1017C00077FF17C0E881F9810190F081E02D6DE28B
:1017D00009958C0144275527BA014C195D096E09FA
:1017E0007F09CE012AE00E94630B9801280F391F60
:1017F00004C02AE00E94630B9C01C901DF91CF91D4
:101800001F910F91FF90EF90DF90CF900895CF92AE
:10181000DF92EF92FF920F931F936C017B019A016D
:101820000027F7FC0095102FB801A7010E94C70BF5
:101830008C01C6010E94270B080F191FC8011F91B8
:101840000F91FF90EF90DF90CF9008950E94470B8B
:101850000895EF92FF920F931F937C010E94470B14
:101860008C01C7010E94270B080F191FC8011F9187
:101870000F91FF90EF900895813041F0813018F082
:101880008230D1F409C010926E00089580916F00EB
:101890008D7F80936F000895809170008D7F80937D
:1018A000700081E08093B0008091B100887F8460F7
:1018B0008093B1001092B30008951F93182F809168
:1018C0005B01811711F09FEF06C0E2ECF0E094910C
:1018D0008FEF80935B01892F0E943C0C812F60E089
:1018E0000E9484081F9108951F920F920FB60F92C5
:1018F00011242F933F934F935F936F937F938F9315
:101900009F93AF93BF93EF93FF938091E7029091E2
:10191000E802A091E902B091EA020097A105B105A1
:1019200051F1E091EB02F091EC0280819091ED0297
:10193000892780838091E7029091E802A091E902D3
:10194000B091EA02181619061A061B06C4F4809113
:10195000E7029091E802A091E902B091EA020197B2
:10196000A109B1098093E7029093E802A093E902EC
:10197000B093EA0204C080915B010E945D0CFF916C
:10198000EF91BF91AF919F918F917F916F915F91F7
:101990004F913F912F910F900FBE0F901F90189570
:1019A0002F923F925F926F927F928F929F92AF920F
:1019B000BF92CF92DF92EF92FF920F931F93DF932C
:1019C000CF9300D000D0CDB7DEB7A82F1B0129835D
:1019D0003A834B835C8380915B018A1721F4E2ECAC
:1019E000F0E0549082C08F3F09F0DAC1A0935B0110
:1019F000E2ECF0E054902FEF521609F4D1C181E0EF
:101A0000581639F192E0591609F449C0552009F0E9
:101A10006CC014BC15BC84B5826084BD85B5816082
:101A200085BD2A2F30E0F901EA57FF4FE491F0E03D
:101A3000EE0FFF1FEE58FF4F859194919093DE02B9
:101A40008093DD0226563F4FF90184918093DF0297
:101A50004EC01092800010928100809181008860B9
:101A600080938100809181008160809381002A2F82
:101A700030E0F901EA57FF4FE491F0E0EE0FFF1F6D
:101A8000EE58FF4F859194919093E5028093E40284
:101A900026563F4FF90184918093E60228C01092A8
:101AA000B0001092B1008091B00082608093B000CD
:101AB0008091B10081608093B1002A2F30E0F9015C
:101AC000EA57FF4FE491F0E0EE0FFF1FEE58FF4F93
:101AD000859194919093EC028093EB0226563F4FB0
:101AE000F90184918093ED0202C057FC59C18A2FFD
:101AF00061E00E944508552021F0F2E05F1609F0F0
:101B0000BEC031018824992460E072E18AE790E048
:101B1000A40193010E948D1159016A01860175018A
:101B20000894E108F108010911092FEFE216F10408
:101B30000105110509F008F499C060E472E48FE032
:101B400090E0A40193010E948D1179018A0108940B
:101B5000E108F1080109110982E05816C1F49FEF6C
:101B6000E916F1040105110509F008F484C060E9E3
:101B700070ED83E090E0A40193010E948D11790142
:101B80008A010894E108F1080109110983E0AFEF27
:101B9000EA16F1040105110509F008F468C068E4CB
:101BA00078EE81E090E0A40193010E948D1179010B
:101BB0008A010894E108F10801091109552011F47E
:101BC00083E01DC0B2E05B1611F084E018C0EFEFB7
:101BD000EE16F1040105110509F008F4DFC064E216
:101BE00074EF80E090E0A40193010E948D117901CF
:101BF0008A010894E108F1080109110985E0FFEF65
:101C0000EF16F1040105110591F188F162E17AE71F
:101C100080E090E0A40193010E948D1179018A0176
:101C20000894E108F10801091109552011F086E036
:101C300001C084E02FEFE216F10401051105B9F0AF
:101C4000B0F0C601B50120E034E040E050E00E9471
:101C50008D1179018A010894E108F108010911093F
:101C6000552011F087E008C085E003C081E05520D1
:101C700019F485BD3AC082E08093B10036C05101AD
:101C8000CC24DD2460E072E18AE790E0A6019501B2
:101C90000E948D1179018A010894E108F108010977
:101CA000110980E0E81680E0F80681E0080780E08E
:101CB000180710F491E010C068E478EE81E090E03D
:101CC000A60195010E948D1179018A010894E1080D
:101CD000F1080109110993E0A1E05A1631F480914D
:101CE0008100887F982B9093810089819A81AB81B4
:101CF000BC810097A105B10529F48FEF9FEFAFEFED
:101D0000BFEF13C0220C331CB10180E090E02981A9
:101D10003A814B815C810E94381128EE33E040E02B
:101D200050E00E946B11C901DA01E1E05E16A1F0FA
:101D3000F2E05F1619F1552099F5E7BC8093D902BE
:101D40009093DA02A093DB02B093DC0280916E00E4
:101D5000826080936E0024C0F0928900E092880037
:101D60008093E0029093E102A093E202B093E30239
:101D700080916F00826080936F0012C0E092B30088
:101D80008093E7029093E802A093E902B093EA02FD
:101D90008091700082608093700002C084E06CCFFC
:101DA0000F900F900F900F90CF91DF911F910F9197
:101DB000FF90EF90DF90CF90BF90AF909F908F906B
:101DC0007F906F905F903F902F9008950F931F9397
:101DD000CF93DF93BC018230910510F462E070E094
:101DE000E091F002F091F102A0E0B0E040E050E0BC
:101DF00024C08081918186179707D0F086179707B6
:101E000071F482819381109729F013969C938E939D
:101E100012972CC09093F1028093F00227C04115D5
:101E2000510519F08417950718F4EF018D01AC01E5
:101E3000DF01828193819C01F9013097D1F6411530
:101E40005105F9F0CA01861B970B8430910580F487
:101E50008A819B810115110521F0F801938382830A
:101E600004C09093F1028093F002FE01329645C0C7
:101E7000FE01E80FF91F619371930297998388839C
:101E80003CC08091EE029091EF02892B41F4809149
:101E90005E0190915F019093EF028093EE0240917A
:101EA0006001509161014115510541F44DB75EB794
:101EB00080915C0190915D01481B590B2091EE02CD
:101EC0003091EF0224173507B0F4CA01821B930B3F
:101ED0008617970780F0AB014E5F5F4F8417950719
:101EE00050F0420F531F5093EF024093EE02F9015E
:101EF0006193719302C0E0E0F0E0CF01DF91CF91F8
:101F00001F910F910895CF93DF939C01009709F4DF
:101F10008FC0EC0122971B821A826091F0027091AF
:101F2000F1026115710581F488819981820F931FF7
:101F30002091EE023091EF022817390739F5D0933E
:101F4000EF02C093EE0274C0DB0140E050E0AC173A
:101F5000BD0708F1BB83AA83FE0121913191E20FF5
:101F6000F31FAE17BF0779F48D919C911197280F3D
:101F7000391F2E5F3F4F3983288312968D919C9194
:101F800013979B838A834115510571F4D093F10215
:101F9000C093F0024DC012968D919C911397AD01A4
:101FA000009711F0DC01D3CFDA011396DC93CE93C6
:101FB0001297FA0121913191E20FF31FCE17DF073B
:101FC00069F488819981280F391F2E5F3F4FFA01EC
:101FD000318320838A819B8193838283E0E0F0E0D8
:101FE000DB0112968D919C911397009719F0BC011B
:101FF000FD01F6CFAB014E5F5F4FDB018D919C91F0
:10200000840F951F2091EE023091EF0228173907B7
:1020100079F4309729F41092F1021092F00202C084
:1020200013821282425050405093EF024093EE02CE
:10203000DF91CF91089598D088F09F5790F0B92FF5
:102040009927B751A0F0D1F0660F771F881F991F0D
:102050001AF0BA95C9F712C0B13081F09FD0B1E043
:1020600008959CC0672F782F8827B85F39F0B93F53
:10207000CCF3869577956795B395D9F73EF490950F
:102080008095709561957F4F8F4F9F4F0895E8948D
:1020900009C097FB3EF490958095709561957F4FB0
:1020A0008F4F9F4F9923A9F0F92F96E9BB2793955E
:1020B000F695879577956795B795F111F8CFFAF46E
:1020C000BB0F11F460FF1BC06F5F7F4F8F4F9F4F9F
:1020D00016C0882311F096E911C0772321F09EE8FD
:1020E000872F762F05C0662371F096E8862F70E063
:1020F00060E02AF09A95660F771F881FDAF7880F3D
:102100009695879597F9089597F99F6780E870E00D
:1021100060E008959FEF80EC089500240A9416165D
:10212000170618060906089500240A9412161306C5
:10213000140605060895092E0394000C11F4882353
:1021400052F0BB0F40F4BF2B11F460FF04C06F5F6F
:102150007F4F8F4F9F4F089557FD9058440F551F45
:1021600059F05F3F71F04795880F97FB991F61F019
:102170009F3F79F087950895121613061406551F90
:10218000F2CF4695F1DF08C0161617061806991FFC
:10219000F1CF86957105610508940895E894BB27F1
:1021A00066277727CB0197F908950BD0C4CFB5DF09
:1021B00028F0BADF18F0952309F0A6CFABCF112491
:1021C000EECFCADFA0F3959FD1F3950F50E0551FD6
:1021D000629FF001729FBB27F00DB11D639FAA277C
:1021E000F00DB11DAA1F649F6627B00DA11D661FCB
:1021F000829F2227B00DA11D621F739FB00DA11DEC
:10220000621F839FA00D611D221F749F3327A00DA5
:10221000611D231F849F600D211D822F762F6A2F41
:1022200011249F5750408AF0E1F088234AF0EE0FC6
:10223000FF1FBB1F661F771F881F91505040A9F7D3
:102240009E3F510570F060CFAACF5F3FECF3983E00
:10225000DCF3869577956795B795F795E7959F5F3A
:10226000C1F7FE2B880F911D9695879597F90895D4
:10227000629FD001739FF001829FE00DF11D649F6A
:10228000E00DF11D929FF00D839FF00D749FF00DF6
:10229000659FF00D9927729FB00DE11DF91F639F97
:1022A000B00DE11DF91FBD01CF0111240895AA1B36
:1022B000BB1B51E107C0AA1FBB1FA617B70710F031
:1022C000A61BB70B881F991F5A95A9F78095909563
:1022D000BC01CD010895A1E21A2EAA1BBB1BFD0172
:1022E0000DC0AA1FBB1FEE1FFF1FA217B307E407F5
:1022F000F50720F0A21BB30BE40BF50B661F771F4D
:10230000881F991F1A9469F760957095809590952C
:102310009B01AC01BD01CF01089597FB092E052655
:102320000ED057FD04D0D7DF0AD0001C38F45095EA
:102330004095309521953F4F4F4F5F4F0895F6F7E9
:1023400090958095709561957F4F8F4F9F4F089521
:10235000EE0FFF1F0590F491E02D0994F894FFCF44
:102360005472696767657220534952454E00446F45
:102370006F720048616C6C77617900556E6B6E6F9F
:10238000776E207A6F6E650053756273637269624F
:10239000696E67204C6F6F7048616E646C65720087
:1023A0004C6F6F70206F766572666C6F7700426F4E
:1023B0006F74696E672E2E2E003C00FF8000F202C3
:1023C0000000000000008D00000000003801000047
:0E23D0000000530AFD0AE9091A0AFA09430A35
:00000001FF
