:100000000C9464000C948C000C948C000C948C0068
:100010000C948C000C948C000C948C000C948C0030
:100020000C948C000C948C000C948C000C948B031E
:100030000C948C000C948C000C948C000C948C0010
:100040000C948E040C948C000C945F060C94AD06FA
:100050000C948C000C948C000C948C000C948C00F0
:100060000C948C000C948C000000000024002700ED
:100070002A0000000000250028002B0000000000DE
:1000800023002600290004040404040404040202DA
:100090000202020203030303030301020408102007
:1000A0004080010204081020010204081020000012
:1000B0000007000201000003040600000000000029
:1000C00000003C011908350111241FBECFEFD8E014
:1000D000DEBFCDBF11E0A0E0B1E0E0E3F6E102C099
:1000E00005900D92A839B107D9F712E0A8E9B1E05F
:1000F00001C01D92A239B107E1F710E0C6ECD0E0D3
:1001000004C02297FE010E94070BC23CD107C9F729
:100110000E946F080C940B0B0C940000FB01DC0197
:1001200002C001900D9241505040D8F70895FB0154
:10013000DC018D91019080190110D9F3990B08957C
:100140000895CF93DF93C0E0D0E00E948A01AB0115
:10015000BC0180E792E02AE030E00E9428096DE7C8
:1001600070E080E090E00E94E4042196C430D10564
:1001700061F7DF91CF910895FC01862F6083718331
:1001800061E00E9478050895CF93DF93EC010E940F
:10019000E800892B81F080E792E060E071E00E9446
:1001A0003709CE0101960E94A10068EC70E080E062
:1001B00090E00E94E404DF91CF91089501960E949F
:1001C000A0000895019666E070E00E94BC000895CA
:1001D0000F931F93DF93CF93CDB7DEB76F970FB613
:1001E000F894DEBF0FBECDBF8EE189838E010E5F16
:1001F0001F4FC801BE016F5F7F4F0E940904882313
:10020000A1F08981F801E80FF11D1082C80164E1B5
:1002100071E00E949700009719F481E090E005C01A
:1002200080E792E0B8010E9437096F960FB6F89404
:10023000DEBF0FBECDBFCF91DF911F910F9108950B
:100240008130910541F46F5F7F4F71F488E991E04F
:100250000E94E2000895892B39F46F5F7F4F21F4EB
:1002600088E991E00E94DE00089580E090E06FEF61
:100270007FEF0E942001089581E090E06FEF7FEF13
:100280000E942001089588E991E00E94C400089529
:1002900080E792E040E855E260E070E00E94E80606
:1002A00081E00E941C0280ED97E00E94500483E0F0
:1002B0000E9419020E947303089560939D01709338
:1002C0009E0180939F019093A00120911E01309187
:1002D0001F014091200150912101260F371F481F17
:1002E000591F2093A1013093A2014093A301509381
:1002F000A40182E090E09093A6018093A5010E9462
:10030000D6046093A7017093A8018093A9019093EC
:10031000AA010895EF92FF920F931F931CC02F5FC5
:100320003F4F4F4F5F4F20939D0130939E0140936D
:100330009F015093A00188EE93E0A0E0B0E0E80EAA
:10034000F91E0A1F1B1FE092A701F092A80100935B
:10035000A9011093AA010E94D604E090A701F09091
:10036000A8010091A9011091AA016E197F09800BC3
:10037000910B20919D0130919E0140919F015091E0
:10038000A001685E73408040904048F68091A101D2
:100390009091A201A091A301B091A401281739075F
:1003A0004A075B07C8F1E0919B01F0919C013097EF
:1003B00099F10995611571058105910519F00E9462
:1003C0005D012AC080911E0190911F01A091200122
:1003D000B091210120919D0130919E0140919F019A
:1003E0005091A001820F931FA41FB51F8093A101FC
:1003F0009093A201A093A301B093A40120E030E068
:100400008091A5019091A601892B11F021E030E0A7
:100410003093A6012093A50160919D0170919E01EA
:1004200080919F019091A0011F910F91FF90EF90FB
:1004300008958093220108958093D5010895209115
:10044000AD01222329F08091D6018F5F8093D601E0
:100450008091D7019091D801281759F0903510F06C
:100460008DE101C08BE0890F8093D8012093D701E3
:1004700003C09C5E9093D8019091D801903A08F403
:1004800088C02091D9013091DA01369527953093B3
:10049000DA012093D9018091D601853028F03860A7
:1004A0003093DA012093D901905A9093D801109299
:1004B000D6018091D401882309F45BC08091DB01CF
:1004C0008F5F8093DB018C3008F463C02091D901E9
:1004D0003091DA01922F9F73A9E6B1E0FD0140E06F
:1004E0008081981729F04F5F31964031C9F740E07D
:1004F00086E0369527958A95E1F790E08C9128174C
:1005000029F09F5F11969031C9F790E0242F229532
:10051000207F292B8091B501882371F42093DC0181
:10052000822F84508B3140F01092D4018091DD01F4
:100530008F5F8093DD0108958091B501E82FF0E091
:10054000EA54FE4F20838F5F8093B5019091B501EF
:100550008091DC01981750F01092D4018091DE0157
:100560008F5F8093DE0181E08093B4011092DB0104
:1005700008958091D9019091DA0188539B4049F404
:1005800081E08093D4011092DB011092B5011092AA
:10059000B40108952F923F924F925F926F927F9293
:1005A0008F929F92AF92BF92CF92DF92EF92FF9283
:1005B0001F93DF93CF93CDB7DEB72E970FB6F89486
:1005C000DEBF0FBECDBF1B012A01DE011196E9E798
:1005D000F1E02EE001900D922150E1F7009709F42F
:1005E00061C0BC0180E090E00E94D3099B01AC0196
:1005F00060E070E080E89FE30E943A0920E030E08C
:1006000040E05EE30E94610A3B014C0153E0E52EAD
:10061000F12CEC0EFD1E11E05101CC24DD24F7017C
:100620006081718180E090E00E94D3099B01AC0160
:1006300060E074E284E79BE40E943A099B01AC010C
:1006400060E070E080E89FE30E943A099B01AC0102
:10065000C401B3010E943A090E94A2099B01AC01A6
:10066000623071058105910528F06A157B058C05BE
:100670009D0540F01F5F82E090E0E80EF91E173004
:1006800071F603C0163071F005C022303105410506
:10069000510540F0C101A0E0B0E082179307A40724
:1006A000B50728F4F2011182108210E003C0F201B4
:1006B00031832083812F2E960FB6F894DEBF0FBEB4
:1006C000CDBFCF91DF911F91FF90EF90DF90CF9042
:1006D000BF90AF909F908F907F906F905F904F9062
:1006E0003F902F9008958091AB01882329F481E0F9
:1006F0008093AB011092D4010895809168016091BC
:10070000D5010E94B7058091230160E00E94B705E2
:100710001092AC0108951F920F920FB60F92112400
:100720002F933F934F935F936F937F938F939F93F9
:10073000AF93BF93EF93FF938091AB01882351F068
:100740008091AC01882331F4809122010E940B0634
:100750008093AD018091AC018823D1F18091AE01ED
:100760008F5F8093AE01815099F5E091AF01809148
:10077000B001E81760F00E947D038091B101909173
:10078000B20101969093B2018093B10121C0809192
:1007900023019091B30121E030E0092E02C0220F25
:1007A000331F0A94E2F7F0E0EC5DFE4F60816223B4
:1007B0009F5F9093B3010E94B7058091B30186308B
:1007C00038F01092B3018091AF018F5F8093AF0139
:1007D0008091AE01883010F01092AE018091AB0193
:1007E000882331F08091AC01882311F40E941F020C
:1007F000FF91EF91BF91AF919F918F917F916F91F9
:100800005F914F913F912F910F900FBE0F901F90CE
:1008100018950F931F93382FFB018091B401882303
:10082000E1F12091B50123508081281708F420833D
:10083000408107EB11E0832FB80150E00E948E0049
:100840001092B4016091B5014FEF5FEFF80131975D
:100850001DC021912427822F8295807F822790E0DE
:10086000382F2227452F5527422B532B9C0103E07D
:10087000220F331F0A95E1F74227532714E096957C
:1008800087951A95E1F7482759276150662309F79C
:1008900080E0485B504F09F481E01F910F9108956B
:1008A000DF93CF9300D0CDB7DEB76FEF7FEFAE0110
:1008B0004F5F5F4F0E94CA02982F882351F1109218
:1008C000800088E08093810080918100892B809353
:1008D000810089819A81909389008093880080911A
:1008E0006F00826080936F008091230161E00E941D
:1008F00078058091220160E00E947805809168016E
:1009000061E00E947805809168016091D5010E94A4
:10091000B7050F900F90CF91DF9108951F920F921E
:100920000FB60F9211242F933F938F939F93AF9302
:10093000BF938091E3019091E401A091E501B09112
:10094000E6013091E7010196A11DB11D232F2D5F16
:100950002D3720F02D570196A11DB11D2093E701E1
:100960008093E3019093E401A093E501B093E60145
:100970008091DF019091E001A091E101B091E2014D
:100980000196A11DB11D8093DF019093E001A0931A
:10099000E101B093E201BF91AF919F918F913F919F
:1009A0002F910F900FBE0F901F9018958FB7F8944E
:1009B0002091E3013091E4014091E5015091E6017D
:1009C0008FBFB901CA0108959B01AC017FB7F894AC
:1009D0008091DF019091E001A091E101B091E201ED
:1009E00066B5A89B05C06F3F19F00196A11DB11D0A
:1009F0007FBFBA2FA92F982F8827860F911DA11D81
:100A0000B11D62E0880F991FAA1FBB1F6A95D1F71D
:100A1000BC012DC0FFB7F8948091DF019091E001F7
:100A2000A091E101B091E201E6B5A89B05C0EF3FBE
:100A300019F00196A11DB11DFFBFBA2FA92F982F44
:100A400088278E0F911DA11DB11DE2E0880F991F0F
:100A5000AA1FBB1FEA95D1F7861B970B885E9340B0
:100A6000C8F2215030404040504068517C4F211521
:100A700031054105510571F60895789484B5826079
:100A800084BD84B5816084BD85B5826085BD85B532
:100A9000816085BDEEE6F0E0808181608083E1E8E1
:100AA000F0E0108280818260808380818160808319
:100AB000E0E8F0E0808181608083E1EBF0E080811C
:100AC00084608083E0EBF0E0808181608083EAE7EE
:100AD000F0E0808184608083808182608083808177
:100AE000816080838081806880831092C100089536
:100AF000CF93DF93482F50E0CA0186569F4FFC01E9
:100B000034914A575F4FFA018491882369F190E04C
:100B1000880F991FFC01E859FF4FA591B491FC0182
:100B2000EE58FF4FC591D491662351F42FB7F89436
:100B30008C91932F909589238C93888189230BC066
:100B4000623061F42FB7F8948C91932F909589239C
:100B50008C938881832B88832FBF06C09FB7F8941E
:100B60008C91832B8C939FBFDF91CF910895482F59
:100B700050E0CA0182559F4FFC012491CA0186565C
:100B80009F4FFC0194914A575F4FFA0134913323F0
:100B900009F440C0222351F1233071F0243028F4AD
:100BA0002130A1F0223011F514C02630B1F02730E9
:100BB000C1F02430D9F404C0809180008F7703C045
:100BC000809180008F7D8093800010C084B58F77E6
:100BD00002C084B58F7D84BD09C08091B0008F773D
:100BE00003C08091B0008F7D8093B000E32FF0E0D0
:100BF000EE0FFF1FEE58FF4FA591B4912FB7F89459
:100C0000662321F48C919095892302C08C91892BC5
:100C10008C932FBF0895682F70E0CB0182559F4FB2
:100C2000FC012491CB0186569F4FFC0144916A57E9
:100C30007F4FFB019491992319F420E030E03CC0F0
:100C4000222351F1233071F0243028F42130A1F017
:100C5000223011F514C02630B1F02730C1F0243015
:100C6000D9F404C0809180008F7703C08091800008
:100C70008F7D8093800010C084B58F7702C084B5CB
:100C80008F7D84BD09C08091B0008F7703C08091B3
:100C9000B0008F7D8093B000892F90E0880F991F5E
:100CA00084589F4FFC01A591B4918C9120E030E0D5
:100CB000842311F021E030E0C901089508951F92C6
:100CC0000F920FB60F9211242F933F934F938F9350
:100CD0009F93EF93FF938091C00082FD1DC04091D0
:100CE000C60020912802309129022F5F3F4F2F73B9
:100CF000307080912A0290912B022817390771F0E9
:100D0000E0912802F0912902E851FE4F4083309390
:100D100029022093280202C08091C600FF91EF9122
:100D20009F918F914F913F912F910F900FBE0F90F8
:100D30001F901895E0917C02F0917D02E05CFF4FDE
:100D40008191919120813181821B930B8F739070DF
:100D5000892B11F00E945E0608951F920F920FB624
:100D60000F9211242F933F938F939F93EF93FF93B1
:100D700020916C0230916D0280916E0290916F0211
:100D80002817390731F48091C1008F7D8093C1000D
:100D900014C0E0916E02F0916F02E45DFD4F20817E
:100DA00080916E0290916F0201968F739070909374
:100DB0006F0280936E022093C600FF91EF919F9186
:100DC0008F913F912F910F900FBE0F901F9018950C
:100DD000AF92BF92DF92EF92FF920F931F93CF9348
:100DE000DF93EC017A018B01DD24403081EE58075E
:100DF00080E0680780E0780711F0DD24D39491E06B
:100E0000A92EB12CEC89FD89DD2069F0C50108A06F
:100E100002C0880F991F0A94E2F7808360E079E0AE
:100E20008DE390E005C0108260E874E88EE190E008
:100E3000A80197010E94E30A2150304040405040F1
:100E4000569547953795279580E12030380720F053
:100E5000DD2011F0DD24D6CFE889F9893083EA89D5
:100E6000FB89208319A2EE89FF89408121E030E0CF
:100E7000C9010C8C02C0880F991F0A94E2F7482B15
:100E80004083EE89FF894081C9010D8C02C0880F23
:100E9000991F0A94E2F7482B4083EE89FF8940812D
:100EA000C9010E8C02C0880F991F0A94E2F7482BE3
:100EB0004083EE89FF8980810F8C02C0220F331F8F
:100EC0000A94E2F7209528232083DF91CF911F9188
:100ED0000F91FF90EF90DF90BF90AF900895DC01ED
:100EE0001C96ED91FC911D97E05CFF4F2191319193
:100EF00080819181281B390B2F733070C9010895AF
:100F0000DC011C96ED91FC911D97E05CFF4F208168
:100F10003181E054F040DF01AE5BBF4F8D919C9179
:100F200011972817390719F42FEF3FEF07C08D915C
:100F30009C91E80FF91F8081282F30E0C9010895A6
:100F4000DC011C96ED91FC911D97E05CFF4F208128
:100F50003181E054F040DF01AE5BBF4F8D919C9139
:100F600011972817390719F42FEF3FEF10C08D9113
:100F70009C911197E80FF91F20818D919C911197F9
:100F800001968F73907011969C938E9330E0C901F7
:100F90000895DC0191968C919197882339F05496AD
:100FA000ED91FC915597808186FFF9CF91961C9227
:100FB0000895CF93DF93EC01EE85FF85E05CFF4F52
:100FC00020813181E054F0402F5F3F4F2F7330700C
:100FD000DF01AE5BBF4F8D919C91119728173907A8
:100FE000D1F3E05CFF4F80819181E054F040E80F45
:100FF000F91F6083EE85FF85E05CFF4F318320831E
:10100000EE89FF89208181E090E00F8C02C0880F7B
:10101000991F0A94E2F7282B208381E089A3EC89A9
:10102000FD8980818064808381E090E0DF91CF91B1
:101030000895109273021092720288EE93E0A0E07D
:10104000B0E08093740290937502A0937602B093FF
:1010500077028BE891E0909371028093700288EEA2
:1010600091E090937D0280937C028CE292E09093D9
:101070007F0280937E0285EC90E0909381028093C2
:10108000800284EC90E0909383028093820280EC53
:1010900090E0909385028093840281EC90E090939D
:1010A00087028093860282EC90E09093890280937D
:1010B000880286EC90E090938B0280938A0284E011
:1010C00080938C0283E080938D0287E080938E0270
:1010D00085E080938F0281E0809390020895CF9302
:1010E000DF930E943D050E944801CAE9D6E00E94B4
:1010F00043012097E1F30E949A06F9CFCF92DF9245
:10110000EF92FF920F931F93CF93DF937C016B01BC
:101110008A01C0E0D0E00FC0D6016D916D01D7010A
:10112000ED91FC910190F081E02DC7010995C80F68
:10113000D91F015010400115110571F7CE01DF9143
:10114000CF911F910F91FF90EF90DF90CF90089576
:10115000CF93DF93EC016115710519F420E030E0C5
:101160000FC0DB010D900020E9F71197A61BB70B0C
:10117000E881F9810280F381E02DAD0109959C01A0
:10118000C901DF91CF9108954F925F927F928F9224
:101190009F92AF92BF92CF92DF92EF92FF920F9306
:1011A0001F93DF93CF93CDB7DEB7A1970FB6F89417
:1011B000DEBF0FBECDBF2C01742ECB01223008F450
:1011C0002AE019A231E2C32ED12CCC0EDD1E822ED4
:1011D0009924AA24BB24672D752FA50194010E9490
:1011E000E30A79018A01C801B701A50194010E94AF
:1011F000C40A472D461B0894C108D1084A3014F48C
:10120000405D01C0495CF6014083E114F104010531
:10121000110521F07E2C5F2DC801DDCFC201B60182
:101220000E94A808A1960FB6F894DEBF0FBECDBFEE
:10123000CF91DF911F910F91FF90EF90DF90CF90B2
:10124000BF90AF909F908F907F905F904F90089548
:10125000DC012115310541F4ED91FC910190F08103
:10126000E02D642F099508950E94C40808950E94F6
:10127000A80808950CD0EBC0E3D040F0DAD030F0ED
:1012800021F45F3F19F0CCC0511115C1CFC0F0D08F
:1012900098F39923C9F35523B1F3951B550BBB273D
:1012A000AA2762177307840738F09F5F5F4F220FEA
:1012B000331F441FAA1FA9F333D00E2E3AF0E0E8E3
:1012C00030D091505040E695001CCAF729D0FE2F2F
:1012D00027D0660F771F881FBB1F261737074807C1
:1012E000AB07B0E809F0BB0B802DBF01FF27935877
:1012F0005F4F2AF09E3F510568F092C0DCC05F3F0F
:10130000ECF3983EDCF3869577956795B795F7955E
:101310009F5FC9F7880F911D9695879597F9089556
:10132000E1E0660F771F881FBB1F621773078407F2
:10133000BA0720F0621B730B840BBA0BEE1F88F701
:10134000E095089504D06894B111B5C0089598D07F
:1013500088F09F5790F0B92F9927B751A0F0D1F09E
:10136000660F771F881F991F1AF0BA95C9F712C028
:10137000B13081F09FD0B1E008959CC0672F782FE5
:101380008827B85F39F0B93FCCF386957795679594
:10139000B395D9F73EF490958095709561957F4F00
:1013A0008F4F9F4F0895E89409C097FB3EF49095A6
:1013B0008095709561957F4F8F4F9F4F9923A9F02E
:1013C000F92F96E9BB279395F695879577956795BD
:1013D000B795F111F8CFFAF4BB0F11F460FF1BC001
:1013E0006F5F7F4F8F4F9F4F16C0882311F096E994
:1013F00011C0772321F09EE8872F762F05C0662342
:1014000071F096E8862F70E060E02AF09A95660FFA
:10141000771F881FDAF7880F9695879597F90895B3
:1014200097F99F6780E870E060E008959FEF80EC97
:10143000089500240A94161617061806090608953A
:1014400000240A9412161306140605060895092EA0
:101450000394000C11F4882352F0BB0F40F4BF2B0F
:1014600011F460FF04C06F5F7F4F8F4F9F4F08954F
:1014700057FD9058440F551F59F05F3F71F0479545
:10148000880F97FB991F61F09F3F79F0879508952A
:10149000121613061406551FF2CF4695F1DF08C049
:1014A000161617061806991FF1CF86957105610566
:1014B00008940895E894BB2766277727CB0197F90E
:1014C00008950BD0C4CFB5DF28F0BADF18F095230C
:1014D00009F0A6CFABCF1124EECFCADFA0F3959FC2
:1014E000D1F3950F50E0551F629FF001729FBB270B
:1014F000F00DB11D639FAA27F00DB11DAA1F649FB7
:101500006627B00DA11D661F829F2227B00DA11D69
:10151000621F739FB00DA11D621F839FA00D611DEF
:10152000221F749F3327A00D611D231F849F600D10
:10153000211D822F762F6A2F11249F5750408AF049
:10154000E1F088234AF0EE0FFF1FBB1F661F771FD5
:10155000881F91505040A9F79E3F510570F060CF11
:10156000AACF5F3FECF3983EDCF3869577956795BD
:10157000B795F795E7959F5FC1F7FE2B880F911DF3
:101580009695879597F90895629FD001739FF00112
:10159000829FE00DF11D649FE00DF11D929FF00D03
:1015A000839FF00D749FF00D659FF00D9927729F3A
:1015B000B00DE11DF91F639FB00DE11DF91FBD01C5
:1015C000CF0111240895A1E21A2EAA1BBB1BFD0115
:1015D0000DC0AA1FBB1FEE1FFF1FA217B307E40712
:1015E000F50720F0A21BB30BE40BF50B661F771F6A
:1015F000881F991F1A9469F760957095809590954A
:101600009B01AC01BD01CF010895EE0FFF1F0590B6
:10161000F491E02D099410E0C6ECD0E004C0FE0186
:101620000E94070B2296C83CD107C9F7F894FFCF58
:10163000446F6F722073656E736F7220747269707D
:1016400070656400545249474745524544002C0197
:1016500000000B0C2A2A2A2A2A2A382C0000000013
:10166000000000000000000000000000000000007A
:10167000000000000000000000000000000000006A
:10168000000000000000000000000000000000005A
:1016900000000000000000000A0D0E131516191AB4
:1016A0001C232526292A2C32340000010008004082
:1016B0000000010004050D00000000D9077E086F3E
:0816C00007A0078007C907001D
:00000001FF
